{
    "_format": "hh-sol-artifact-1",
    "contractName": "SaveSnailz",
    "sourceName": "contracts/nft.sol",
    "abi": [
        {
            "inputs": [],
            "stateMutability": "nonpayable",
            "type": "constructor"
        },
        {
            "inputs": [],
            "name": "ApprovalCallerNotOwnerNorApproved",
            "type": "error"
        },
        {
            "inputs": [],
            "name": "ApprovalQueryForNonexistentToken",
            "type": "error"
        },
        {
            "inputs": [],
            "name": "BalanceQueryForZeroAddress",
            "type": "error"
        },
        {
            "inputs": [],
            "name": "MaxSupplyExceeded",
            "type": "error"
        },
        {
            "inputs": [],
            "name": "MintERC2309QuantityExceedsLimit",
            "type": "error"
        },
        {
            "inputs": [],
            "name": "MintToZeroAddress",
            "type": "error"
        },
        {
            "inputs": [],
            "name": "MintZeroQuantity",
            "type": "error"
        },
        {
            "inputs": [
                {
                    "internalType": "address",
                    "name": "operator",
                    "type": "address"
                }
            ],
            "name": "OperatorNotAllowed",
            "type": "error"
        },
        {
            "inputs": [],
            "name": "OwnerQueryForNonexistentToken",
            "type": "error"
        },
        {
            "inputs": [],
            "name": "OwnershipNotInitializedForExtraData",
            "type": "error"
        },
        {
            "inputs": [],
            "name": "TransferCallerNotOwnerNorApproved",
            "type": "error"
        },
        {
            "inputs": [],
            "name": "TransferFromIncorrectOwner",
            "type": "error"
        },
        {
            "inputs": [],
            "name": "TransferToNonERC721ReceiverImplementer",
            "type": "error"
        },
        {
            "inputs": [],
            "name": "TransferToZeroAddress",
            "type": "error"
        },
        {
            "inputs": [],
            "name": "URIQueryForNonexistentToken",
            "type": "error"
        },
        {
            "anonymous": false,
            "inputs": [
                {
                    "indexed": true,
                    "internalType": "address",
                    "name": "owner",
                    "type": "address"
                },
                {
                    "indexed": true,
                    "internalType": "address",
                    "name": "approved",
                    "type": "address"
                },
                {
                    "indexed": true,
                    "internalType": "uint256",
                    "name": "tokenId",
                    "type": "uint256"
                }
            ],
            "name": "Approval",
            "type": "event"
        },
        {
            "anonymous": false,
            "inputs": [
                {
                    "indexed": true,
                    "internalType": "address",
                    "name": "owner",
                    "type": "address"
                },
                {
                    "indexed": true,
                    "internalType": "address",
                    "name": "operator",
                    "type": "address"
                },
                {
                    "indexed": false,
                    "internalType": "bool",
                    "name": "approved",
                    "type": "bool"
                }
            ],
            "name": "ApprovalForAll",
            "type": "event"
        },
        {
            "anonymous": false,
            "inputs": [
                {
                    "indexed": false,
                    "internalType": "string",
                    "name": "baseURI",
                    "type": "string"
                }
            ],
            "name": "BaseURIUpdated",
            "type": "event"
        },
        {
            "anonymous": false,
            "inputs": [
                {
                    "indexed": true,
                    "internalType": "uint256",
                    "name": "fromTokenId",
                    "type": "uint256"
                },
                {
                    "indexed": false,
                    "internalType": "uint256",
                    "name": "toTokenId",
                    "type": "uint256"
                },
                {
                    "indexed": true,
                    "internalType": "address",
                    "name": "from",
                    "type": "address"
                },
                {
                    "indexed": true,
                    "internalType": "address",
                    "name": "to",
                    "type": "address"
                }
            ],
            "name": "ConsecutiveTransfer",
            "type": "event"
        },
        {
            "anonymous": false,
            "inputs": [
                {
                    "indexed": true,
                    "internalType": "address",
                    "name": "previousOwner",
                    "type": "address"
                },
                {
                    "indexed": true,
                    "internalType": "address",
                    "name": "newOwner",
                    "type": "address"
                }
            ],
            "name": "OwnershipTransferred",
            "type": "event"
        },
        {
            "anonymous": false,
            "inputs": [
                {
                    "indexed": true,
                    "internalType": "address",
                    "name": "from",
                    "type": "address"
                },
                {
                    "indexed": true,
                    "internalType": "address",
                    "name": "to",
                    "type": "address"
                },
                {
                    "indexed": true,
                    "internalType": "uint256",
                    "name": "tokenId",
                    "type": "uint256"
                }
            ],
            "name": "Transfer",
            "type": "event"
        },
        {
            "inputs": [],
            "name": "OPERATOR_FILTER_REGISTRY",
            "outputs": [
                {
                    "internalType": "contract IOperatorFilterRegistry",
                    "name": "",
                    "type": "address"
                }
            ],
            "stateMutability": "view",
            "type": "function"
        },
        {
            "inputs": [
                {
                    "internalType": "address[]",
                    "name": "_accounts",
                    "type": "address[]"
                },
                {
                    "internalType": "uint256[]",
                    "name": "_amounts",
                    "type": "uint256[]"
                }
            ],
            "name": "airdrop",
            "outputs": [],
            "stateMutability": "nonpayable",
            "type": "function"
        },
        {
            "inputs": [
                {
                    "internalType": "address",
                    "name": "operator",
                    "type": "address"
                },
                {
                    "internalType": "uint256",
                    "name": "tokenId",
                    "type": "uint256"
                }
            ],
            "name": "approve",
            "outputs": [],
            "stateMutability": "payable",
            "type": "function"
        },
        {
            "inputs": [
                {
                    "internalType": "address",
                    "name": "owner",
                    "type": "address"
                }
            ],
            "name": "balanceOf",
            "outputs": [
                {
                    "internalType": "uint256",
                    "name": "",
                    "type": "uint256"
                }
            ],
            "stateMutability": "view",
            "type": "function"
        },
        {
            "inputs": [
                {
                    "internalType": "uint256",
                    "name": "tokenId",
                    "type": "uint256"
                }
            ],
            "name": "burn",
            "outputs": [],
            "stateMutability": "nonpayable",
            "type": "function"
        },
        {
            "inputs": [
                {
                    "internalType": "uint256",
                    "name": "tokenId",
                    "type": "uint256"
                }
            ],
            "name": "getApproved",
            "outputs": [
                {
                    "internalType": "address",
                    "name": "",
                    "type": "address"
                }
            ],
            "stateMutability": "view",
            "type": "function"
        },
        {
            "inputs": [],
            "name": "hiddenMetadataUri",
            "outputs": [
                {
                    "internalType": "string",
                    "name": "",
                    "type": "string"
                }
            ],
            "stateMutability": "view",
            "type": "function"
        },
        {
            "inputs": [
                {
                    "internalType": "address",
                    "name": "owner",
                    "type": "address"
                },
                {
                    "internalType": "address",
                    "name": "operator",
                    "type": "address"
                }
            ],
            "name": "isApprovedForAll",
            "outputs": [
                {
                    "internalType": "bool",
                    "name": "",
                    "type": "bool"
                }
            ],
            "stateMutability": "view",
            "type": "function"
        },
        {
            "inputs": [],
            "name": "isPublicMintEnabled",
            "outputs": [
                {
                    "internalType": "bool",
                    "name": "",
                    "type": "bool"
                }
            ],
            "stateMutability": "view",
            "type": "function"
        },
        {
            "inputs": [],
            "name": "isRevealed",
            "outputs": [
                {
                    "internalType": "bool",
                    "name": "",
                    "type": "bool"
                }
            ],
            "stateMutability": "view",
            "type": "function"
        },
        {
            "inputs": [],
            "name": "isWhitelistMintEnabled",
            "outputs": [
                {
                    "internalType": "bool",
                    "name": "",
                    "type": "bool"
                }
            ],
            "stateMutability": "view",
            "type": "function"
        },
        {
            "inputs": [],
            "name": "maxPerTx",
            "outputs": [
                {
                    "internalType": "uint256",
                    "name": "",
                    "type": "uint256"
                }
            ],
            "stateMutability": "view",
            "type": "function"
        },
        {
            "inputs": [],
            "name": "maxPerWallet",
            "outputs": [
                {
                    "internalType": "uint256",
                    "name": "",
                    "type": "uint256"
                }
            ],
            "stateMutability": "view",
            "type": "function"
        },
        {
            "inputs": [],
            "name": "maxSupply",
            "outputs": [
                {
                    "internalType": "uint256",
                    "name": "",
                    "type": "uint256"
                }
            ],
            "stateMutability": "view",
            "type": "function"
        },
        {
            "inputs": [],
            "name": "merkleRoot",
            "outputs": [
                {
                    "internalType": "bytes32",
                    "name": "",
                    "type": "bytes32"
                }
            ],
            "stateMutability": "view",
            "type": "function"
        },
        {
            "inputs": [
                {
                    "internalType": "uint256",
                    "name": "quantity",
                    "type": "uint256"
                }
            ],
            "name": "mint",
            "outputs": [],
            "stateMutability": "payable",
            "type": "function"
        },
        {
            "inputs": [],
            "name": "name",
            "outputs": [
                {
                    "internalType": "string",
                    "name": "",
                    "type": "string"
                }
            ],
            "stateMutability": "view",
            "type": "function"
        },
        {
            "inputs": [],
            "name": "owner",
            "outputs": [
                {
                    "internalType": "address",
                    "name": "",
                    "type": "address"
                }
            ],
            "stateMutability": "view",
            "type": "function"
        },
        {
            "inputs": [
                {
                    "internalType": "uint256",
                    "name": "_quantity",
                    "type": "uint256"
                }
            ],
            "name": "ownerBatchMint",
            "outputs": [],
            "stateMutability": "nonpayable",
            "type": "function"
        },
        {
            "inputs": [
                {
                    "internalType": "uint256",
                    "name": "tokenId",
                    "type": "uint256"
                }
            ],
            "name": "ownerOf",
            "outputs": [
                {
                    "internalType": "address",
                    "name": "",
                    "type": "address"
                }
            ],
            "stateMutability": "view",
            "type": "function"
        },
        {
            "inputs": [],
            "name": "price",
            "outputs": [
                {
                    "internalType": "uint256",
                    "name": "",
                    "type": "uint256"
                }
            ],
            "stateMutability": "view",
            "type": "function"
        },
        {
            "inputs": [],
            "name": "renounceOwnership",
            "outputs": [],
            "stateMutability": "nonpayable",
            "type": "function"
        },
        {
            "inputs": [
                {
                    "internalType": "uint256",
                    "name": "tokenId",
                    "type": "uint256"
                },
                {
                    "internalType": "uint256",
                    "name": "salePrice",
                    "type": "uint256"
                }
            ],
            "name": "royaltyInfo",
            "outputs": [
                {
                    "internalType": "address",
                    "name": "",
                    "type": "address"
                },
                {
                    "internalType": "uint256",
                    "name": "",
                    "type": "uint256"
                }
            ],
            "stateMutability": "view",
            "type": "function"
        },
        {
            "inputs": [
                {
                    "internalType": "address",
                    "name": "from",
                    "type": "address"
                },
                {
                    "internalType": "address",
                    "name": "to",
                    "type": "address"
                },
                {
                    "internalType": "uint256",
                    "name": "tokenId",
                    "type": "uint256"
                }
            ],
            "name": "safeTransferFrom",
            "outputs": [],
            "stateMutability": "payable",
            "type": "function"
        },
        {
            "inputs": [
                {
                    "internalType": "address",
                    "name": "from",
                    "type": "address"
                },
                {
                    "internalType": "address",
                    "name": "to",
                    "type": "address"
                },
                {
                    "internalType": "uint256",
                    "name": "tokenId",
                    "type": "uint256"
                },
                {
                    "internalType": "bytes",
                    "name": "data",
                    "type": "bytes"
                }
            ],
            "name": "safeTransferFrom",
            "outputs": [],
            "stateMutability": "payable",
            "type": "function"
        },
        {
            "inputs": [
                {
                    "internalType": "address",
                    "name": "operator",
                    "type": "address"
                },
                {
                    "internalType": "bool",
                    "name": "approved",
                    "type": "bool"
                }
            ],
            "name": "setApprovalForAll",
            "outputs": [],
            "stateMutability": "nonpayable",
            "type": "function"
        },
        {
            "inputs": [
                {
                    "internalType": "string",
                    "name": "_baseTokenURI",
                    "type": "string"
                }
            ],
            "name": "setBaseTokenURI",
            "outputs": [],
            "stateMutability": "nonpayable",
            "type": "function"
        },
        {
            "inputs": [
                {
                    "internalType": "string",
                    "name": "_hiddenMetadataUri",
                    "type": "string"
                }
            ],
            "name": "setHiddenMetadataUri",
            "outputs": [],
            "stateMutability": "nonpayable",
            "type": "function"
        },
        {
            "inputs": [
                {
                    "internalType": "uint256",
                    "name": "_maxPerTx",
                    "type": "uint256"
                }
            ],
            "name": "setMaxPerTx",
            "outputs": [],
            "stateMutability": "nonpayable",
            "type": "function"
        },
        {
            "inputs": [
                {
                    "internalType": "uint256",
                    "name": "_maxPerWallet",
                    "type": "uint256"
                }
            ],
            "name": "setMaxPerWallet",
            "outputs": [],
            "stateMutability": "nonpayable",
            "type": "function"
        },
        {
            "inputs": [
                {
                    "internalType": "uint256",
                    "name": "_maxSupply",
                    "type": "uint256"
                }
            ],
            "name": "setMaxSupply",
            "outputs": [],
            "stateMutability": "nonpayable",
            "type": "function"
        },
        {
            "inputs": [
                {
                    "internalType": "bytes32",
                    "name": "_merkleRoot",
                    "type": "bytes32"
                }
            ],
            "name": "setMerkleRoot",
            "outputs": [],
            "stateMutability": "nonpayable",
            "type": "function"
        },
        {
            "inputs": [
                {
                    "internalType": "uint256",
                    "name": "_price",
                    "type": "uint256"
                }
            ],
            "name": "setPrice",
            "outputs": [],
            "stateMutability": "nonpayable",
            "type": "function"
        },
        {
            "inputs": [
                {
                    "internalType": "bool",
                    "name": "_PublicMintEnabled",
                    "type": "bool"
                }
            ],
            "name": "setPublicMintEnabled",
            "outputs": [],
            "stateMutability": "nonpayable",
            "type": "function"
        },
        {
            "inputs": [
                {
                    "internalType": "bool",
                    "name": "_state",
                    "type": "bool"
                }
            ],
            "name": "setRevealed",
            "outputs": [],
            "stateMutability": "nonpayable",
            "type": "function"
        },
        {
            "inputs": [
                {
                    "internalType": "address",
                    "name": "receiver",
                    "type": "address"
                },
                {
                    "internalType": "uint96",
                    "name": "feeBasisPoints",
                    "type": "uint96"
                }
            ],
            "name": "setRoyaltyInfo",
            "outputs": [],
            "stateMutability": "nonpayable",
            "type": "function"
        },
        {
            "inputs": [
                {
                    "internalType": "bool",
                    "name": "_WhitelistMintEnabled",
                    "type": "bool"
                }
            ],
            "name": "setWhitelistMintEnabled",
            "outputs": [],
            "stateMutability": "nonpayable",
            "type": "function"
        },
        {
            "inputs": [
                {
                    "internalType": "bytes4",
                    "name": "interfaceId",
                    "type": "bytes4"
                }
            ],
            "name": "supportsInterface",
            "outputs": [
                {
                    "internalType": "bool",
                    "name": "",
                    "type": "bool"
                }
            ],
            "stateMutability": "view",
            "type": "function"
        },
        {
            "inputs": [],
            "name": "symbol",
            "outputs": [
                {
                    "internalType": "string",
                    "name": "",
                    "type": "string"
                }
            ],
            "stateMutability": "view",
            "type": "function"
        },
        {
            "inputs": [
                {
                    "internalType": "uint256",
                    "name": "tokenId",
                    "type": "uint256"
                }
            ],
            "name": "tokenURI",
            "outputs": [
                {
                    "internalType": "string",
                    "name": "",
                    "type": "string"
                }
            ],
            "stateMutability": "view",
            "type": "function"
        },
        {
            "inputs": [],
            "name": "totalSupply",
            "outputs": [
                {
                    "internalType": "uint256",
                    "name": "",
                    "type": "uint256"
                }
            ],
            "stateMutability": "view",
            "type": "function"
        },
        {
            "inputs": [
                {
                    "internalType": "address",
                    "name": "from",
                    "type": "address"
                },
                {
                    "internalType": "address",
                    "name": "to",
                    "type": "address"
                },
                {
                    "internalType": "uint256",
                    "name": "tokenId",
                    "type": "uint256"
                }
            ],
            "name": "transferFrom",
            "outputs": [],
            "stateMutability": "payable",
            "type": "function"
        },
        {
            "inputs": [
                {
                    "internalType": "address",
                    "name": "newOwner",
                    "type": "address"
                }
            ],
            "name": "transferOwnership",
            "outputs": [],
            "stateMutability": "nonpayable",
            "type": "function"
        },
        {
            "inputs": [
                {
                    "internalType": "address",
                    "name": "",
                    "type": "address"
                }
            ],
            "name": "walletMints",
            "outputs": [
                {
                    "internalType": "uint256",
                    "name": "",
                    "type": "uint256"
                }
            ],
            "stateMutability": "view",
            "type": "function"
        },
        {
            "inputs": [
                {
                    "internalType": "uint256",
                    "name": "quantity",
                    "type": "uint256"
                },
                {
                    "internalType": "bytes32[]",
                    "name": "proof",
                    "type": "bytes32[]"
                }
            ],
            "name": "whitelistMint",
            "outputs": [],
            "stateMutability": "payable",
            "type": "function"
        },
        {
            "inputs": [],
            "name": "withdraw",
            "outputs": [],
            "stateMutability": "nonpayable",
            "type": "function"
        }
    ],
    "bytecode": "60806040526000600c60006101000a81548160ff0219169083151502179055506002600d55600a600e556002600f55660a4d88ddd940006010553480156200004657600080fd5b506040518060400160405280600a81526020017f53617665536e61696c7a000000000000000000000000000000000000000000008152506040518060400160405280600281526020017f5353000000000000000000000000000000000000000000000000000000000000815250733cc6cdda760b79bafa08df41ecfa224f810dceb6600160006daaeb6d7670e522a718067333cd4e73ffffffffffffffffffffffffffffffffffffffff163b1115620002bf57801562000185576daaeb6d7670e522a718067333cd4e73ffffffffffffffffffffffffffffffffffffffff16637d3e3dbe30846040518363ffffffff1660e01b81526004016200014b92919062000447565b600060405180830381600087803b1580156200016657600080fd5b505af11580156200017b573d6000803e3d6000fd5b50505050620002be565b600073ffffffffffffffffffffffffffffffffffffffff168273ffffffffffffffffffffffffffffffffffffffff16146200023f576daaeb6d7670e522a718067333cd4e73ffffffffffffffffffffffffffffffffffffffff1663a0af290330846040518363ffffffff1660e01b81526004016200020592919062000447565b600060405180830381600087803b1580156200022057600080fd5b505af115801562000235573d6000803e3d6000fd5b50505050620002bd565b6daaeb6d7670e522a718067333cd4e73ffffffffffffffffffffffffffffffffffffffff16634420e486306040518263ffffffff1660e01b815260040162000288919062000474565b600060405180830381600087803b158015620002a357600080fd5b505af1158015620002b8573d6000803e3d6000fd5b505050505b5b5b50508160029081620002d291906200070b565b508060039081620002e491906200070b565b50620002f56200032b60201b60201c565b60008190555050506200031d620003116200033460201b60201c565b6200033c60201b60201c565b6001600b81905550620007f2565b60006001905090565b600033905090565b6000600a60009054906101000a900473ffffffffffffffffffffffffffffffffffffffff16905081600a60006101000a81548173ffffffffffffffffffffffffffffffffffffffff021916908373ffffffffffffffffffffffffffffffffffffffff1602179055508173ffffffffffffffffffffffffffffffffffffffff168173ffffffffffffffffffffffffffffffffffffffff167f8be0079c531659141344cd1fd0a4f28419497f9722a3daafe3b4186f6b6457e060405160405180910390a35050565b600073ffffffffffffffffffffffffffffffffffffffff82169050919050565b60006200042f8262000402565b9050919050565b620004418162000422565b82525050565b60006040820190506200045e600083018562000436565b6200046d602083018462000436565b9392505050565b60006020820190506200048b600083018462000436565b92915050565b600081519050919050565b7f4e487b7100000000000000000000000000000000000000000000000000000000600052604160045260246000fd5b7f4e487b7100000000000000000000000000000000000000000000000000000000600052602260045260246000fd5b600060028204905060018216806200051357607f821691505b602082108103620005295762000528620004cb565b5b50919050565b60008190508160005260206000209050919050565b60006020601f8301049050919050565b600082821b905092915050565b600060088302620005937fffffffffffffffffffffffffffffffffffffffffffffffffffffffffffffffff8262000554565b6200059f868362000554565b95508019841693508086168417925050509392505050565b6000819050919050565b6000819050919050565b6000620005ec620005e6620005e084620005b7565b620005c1565b620005b7565b9050919050565b6000819050919050565b6200060883620005cb565b620006206200061782620005f3565b84845462000561565b825550505050565b600090565b6200063762000628565b62000644818484620005fd565b505050565b5b818110156200066c57620006606000826200062d565b6001810190506200064a565b5050565b601f821115620006bb5762000685816200052f565b620006908462000544565b81016020851015620006a0578190505b620006b8620006af8562000544565b83018262000649565b50505b505050565b600082821c905092915050565b6000620006e060001984600802620006c0565b1980831691505092915050565b6000620006fb8383620006cd565b9150826002028217905092915050565b620007168262000491565b67ffffffffffffffff8111156200073257620007316200049c565b5b6200073e8254620004fa565b6200074b82828562000670565b600060209050601f8311600181146200078357600084156200076e578287015190505b6200077a8582620006ed565b865550620007ea565b601f19841662000793866200052f565b60005b82811015620007bd5784890151825560018201915060208501945060208101905062000796565b86831015620007dd5784890151620007d9601f891682620006cd565b8355505b6001600288020188555050505b505050505050565b614c6180620008026000396000f3fe60806040526004361061027d5760003560e01c8063715018a61161014f578063b767a098116100c1578063e0a808531161007a578063e0a808531461090b578063e268e4d314610934578063e985e9c51461095d578063f0293fd31461099a578063f2fde38b146109d7578063f968adbe14610a005761027d565b8063b767a09814610819578063b88d4fde14610842578063c6f6f2161461085e578063c87b56dd14610887578063d2cab056146108c4578063d5abeb01146108e05761027d565b806391b7f5ed1161011357806391b7f5ed1461072a57806395d89b4114610753578063a035b1fe1461077e578063a0712d68146107a9578063a22cb465146107c5578063a45ba8e7146107ee5761027d565b8063715018a61461066d5780637cb6475914610684578063818668d7146106ad5780638da5cb5b146106d65780638db89f07146107015761027d565b80633ccfd60b116101f357806351aaceab116101ac57806351aaceab1461054b57806354214f69146105765780636352211e146105a157806367243482146105de5780636f8b44b01461060757806370a08231146106305761027d565b80633ccfd60b1461047057806341f434341461048757806342842e0e146104b257806342966c68146104ce578063453c2310146104f75780634fdd43cb146105225761027d565b8063095ea7b311610245578063095ea7b31461037b57806318160ddd1461039757806323b872dd146103c25780632a55205a146103de5780632eb4a7ab1461041c57806330176e13146104475761027d565b80630116bc2d1461028257806301ffc9a7146102ad57806302fa7c47146102ea57806306fdde0314610313578063081812fc1461033e575b600080fd5b34801561028e57600080fd5b50610297610a2b565b6040516102a4919061336b565b60405180910390f35b3480156102b957600080fd5b506102d460048036038101906102cf91906133f2565b610a3e565b6040516102e1919061336b565b60405180910390f35b3480156102f657600080fd5b50610311600480360381019061030c91906134c1565b610a60565b005b34801561031f57600080fd5b50610328610a76565b6040516103359190613591565b60405180910390f35b34801561034a57600080fd5b50610365600480360381019061036091906135e9565b610b08565b6040516103729190613625565b60405180910390f35b61039560048036038101906103909190613640565b610b87565b005b3480156103a357600080fd5b506103ac610ba0565b6040516103b9919061368f565b60405180910390f35b6103dc60048036038101906103d791906136aa565b610bb7565b005b3480156103ea57600080fd5b50610405600480360381019061040091906136fd565b610c06565b60405161041392919061373d565b60405180910390f35b34801561042857600080fd5b50610431610df0565b60405161043e919061377f565b60405180910390f35b34801561045357600080fd5b5061046e600480360381019061046991906137ff565b610df6565b005b34801561047c57600080fd5b50610485610e4d565b005b34801561049357600080fd5b5061049c610f14565b6040516104a991906138ab565b60405180910390f35b6104cc60048036038101906104c791906136aa565b610f26565b005b3480156104da57600080fd5b506104f560048036038101906104f091906135e9565b610f75565b005b34801561050357600080fd5b5061050c610f83565b604051610519919061368f565b60405180910390f35b34801561052e57600080fd5b50610549600480360381019061054491906139f6565b610f89565b005b34801561055757600080fd5b50610560610fa4565b60405161056d919061336b565b60405180910390f35b34801561058257600080fd5b5061058b610fb7565b604051610598919061336b565b60405180910390f35b3480156105ad57600080fd5b506105c860048036038101906105c391906135e9565b610fca565b6040516105d59190613625565b60405180910390f35b3480156105ea57600080fd5b5061060560048036038101906106009190613aeb565b610fdc565b005b34801561061357600080fd5b5061062e600480360381019061062991906135e9565b6110be565b005b34801561063c57600080fd5b5061065760048036038101906106529190613b6c565b6110d0565b604051610664919061368f565b60405180910390f35b34801561067957600080fd5b50610682611188565b005b34801561069057600080fd5b506106ab60048036038101906106a69190613bc5565b61119c565b005b3480156106b957600080fd5b506106d460048036038101906106cf9190613c1e565b6111ae565b005b3480156106e257600080fd5b506106eb6111d3565b6040516106f89190613625565b60405180910390f35b34801561070d57600080fd5b50610728600480360381019061072391906135e9565b6111fd565b005b34801561073657600080fd5b50610751600480360381019061074c91906135e9565b61127f565b005b34801561075f57600080fd5b50610768611291565b6040516107759190613591565b60405180910390f35b34801561078a57600080fd5b50610793611323565b6040516107a0919061368f565b60405180910390f35b6107c360048036038101906107be91906135e9565b611329565b005b3480156107d157600080fd5b506107ec60048036038101906107e79190613c4b565b61159f565b005b3480156107fa57600080fd5b506108036115b8565b6040516108109190613591565b60405180910390f35b34801561082557600080fd5b50610840600480360381019061083b9190613c1e565b611646565b005b61085c60048036038101906108579190613d2c565b61166b565b005b34801561086a57600080fd5b50610885600480360381019061088091906135e9565b6116bc565b005b34801561089357600080fd5b506108ae60048036038101906108a991906135e9565b6116ce565b6040516108bb9190613591565b60405180910390f35b6108de60048036038101906108d99190613e05565b61181a565b005b3480156108ec57600080fd5b506108f5611b45565b604051610902919061368f565b60405180910390f35b34801561091757600080fd5b50610932600480360381019061092d9190613c1e565b611b4b565b005b34801561094057600080fd5b5061095b600480360381019061095691906135e9565b611b70565b005b34801561096957600080fd5b50610984600480360381019061097f9190613e65565b611b82565b604051610991919061336b565b60405180910390f35b3480156109a657600080fd5b506109c160048036038101906109bc9190613b6c565b611c16565b6040516109ce919061368f565b60405180910390f35b3480156109e357600080fd5b506109fe60048036038101906109f99190613b6c565b611c2e565b005b348015610a0c57600080fd5b50610a15611cb1565b604051610a22919061368f565b60405180910390f35b601160009054906101000a900460ff1681565b6000610a4982611cb7565b80610a595750610a5882611d49565b5b9050919050565b610a68611dc3565b610a728282611e41565b5050565b606060028054610a8590613ed4565b80601f0160208091040260200160405190810160405280929190818152602001828054610ab190613ed4565b8015610afe5780601f10610ad357610100808354040283529160200191610afe565b820191906000526020600020905b815481529060010190602001808311610ae157829003601f168201915b5050505050905090565b6000610b1382611fd6565b610b49576040517fcf4700e400000000000000000000000000000000000000000000000000000000815260040160405180910390fd5b6006600083815260200190815260200160002060000160009054906101000a900473ffffffffffffffffffffffffffffffffffffffff169050919050565b81610b9181612035565b610b9b8383612132565b505050565b6000610baa612276565b6001546000540303905090565b823373ffffffffffffffffffffffffffffffffffffffff168173ffffffffffffffffffffffffffffffffffffffff1614610bf557610bf433612035565b5b610c0084848461227f565b50505050565b6000806000600960008681526020019081526020016000206040518060400160405290816000820160009054906101000a900473ffffffffffffffffffffffffffffffffffffffff1673ffffffffffffffffffffffffffffffffffffffff1673ffffffffffffffffffffffffffffffffffffffff1681526020016000820160149054906101000a90046bffffffffffffffffffffffff166bffffffffffffffffffffffff166bffffffffffffffffffffffff16815250509050600073ffffffffffffffffffffffffffffffffffffffff16816000015173ffffffffffffffffffffffffffffffffffffffff1603610d9b5760086040518060400160405290816000820160009054906101000a900473ffffffffffffffffffffffffffffffffffffffff1673ffffffffffffffffffffffffffffffffffffffff1673ffffffffffffffffffffffffffffffffffffffff1681526020016000820160149054906101000a90046bffffffffffffffffffffffff166bffffffffffffffffffffffff166bffffffffffffffffffffffff168152505090505b6000610da56125a1565b6bffffffffffffffffffffffff1682602001516bffffffffffffffffffffffff1686610dd19190613f34565b610ddb9190613fa5565b90508160000151819350935050509250929050565b60145481565b610dfe611dc3565b818160129182610e0f929190614183565b507f6741b2fc379fad678116fe3d4d4b9a1a184ab53ba36b86ad0fa66340b1ab41ad8282604051610e41929190614280565b60405180910390a15050565b610e55611dc3565b610e5d6125ab565b60003373ffffffffffffffffffffffffffffffffffffffff1647604051610e83906142d5565b60006040518083038185875af1925050503d8060008114610ec0576040519150601f19603f3d011682016040523d82523d6000602084013e610ec5565b606091505b5050905080610f09576040517f08c379a0000000000000000000000000000000000000000000000000000000008152600401610f0090614336565b60405180910390fd5b50610f126125fa565b565b6daaeb6d7670e522a718067333cd4e81565b823373ffffffffffffffffffffffffffffffffffffffff168173ffffffffffffffffffffffffffffffffffffffff1614610f6457610f6333612035565b5b610f6f848484612604565b50505050565b610f80816001612624565b50565b600f5481565b610f91611dc3565b8060139081610fa09190614356565b5050565b601160019054906101000a900460ff1681565b600c60009054906101000a900460ff1681565b6000610fd582612876565b9050919050565b610fe4611dc3565b610fec6125ab565b600084849050905060005b818110156110ae57600086868381811061101457611013614428565b5b90506020020160208101906110299190613b6c565b905060008585848181106110405761103f614428565b5b905060200201359050600e5481611055610ba0565b61105f9190614457565b1115611097576040517f8a164f6300000000000000000000000000000000000000000000000000000000815260040160405180910390fd5b6110a18282612942565b6001830192505050610ff7565b50506110b86125fa565b50505050565b6110c6611dc3565b80600e8190555050565b60008073ffffffffffffffffffffffffffffffffffffffff168273ffffffffffffffffffffffffffffffffffffffff1603611137576040517f8f4eb60400000000000000000000000000000000000000000000000000000000815260040160405180910390fd5b67ffffffffffffffff600560008473ffffffffffffffffffffffffffffffffffffffff1673ffffffffffffffffffffffffffffffffffffffff16815260200190815260200160002054169050919050565b611190611dc3565b61119a6000612afd565b565b6111a4611dc3565b8060148190555050565b6111b6611dc3565b80601160006101000a81548160ff02191690831515021790555050565b6000600a60009054906101000a900473ffffffffffffffffffffffffffffffffffffffff16905090565b611205611dc3565b61120d6125ab565b6000611217610ba0565b9050600e5482826112289190614457565b1115611269576040517f08c379a0000000000000000000000000000000000000000000000000000000008152600401611260906144d7565b60405180910390fd5b6112733383612942565b5061127c6125fa565b50565b611287611dc3565b8060108190555050565b6060600380546112a090613ed4565b80601f01602080910402602001604051908101604052809291908181526020018280546112cc90613ed4565b80156113195780601f106112ee57610100808354040283529160200191611319565b820191906000526020600020905b8154815290600101906020018083116112fc57829003601f168201915b5050505050905090565b60105481565b601160009054906101000a900460ff16611378576040517f08c379a000000000000000000000000000000000000000000000000000000000815260040161136f90614543565b60405180910390fd5b6000611382610ba0565b9050600e5482826113939190614457565b11156113d4576040517f08c379a00000000000000000000000000000000000000000000000000000000081526004016113cb906144d7565b60405180910390fd5b6001600d546113e39190614457565b8210611424576040517f08c379a000000000000000000000000000000000000000000000000000000000815260040161141b906145af565b60405180910390fd5b601054826114329190613f34565b341015611474576040517f08c379a000000000000000000000000000000000000000000000000000000000815260040161146b9061461b565b60405180910390fd5b600f5482601560003373ffffffffffffffffffffffffffffffffffffffff1673ffffffffffffffffffffffffffffffffffffffff168152602001908152602001600020546114c29190614457565b1115611503576040517f08c379a00000000000000000000000000000000000000000000000000000000081526004016114fa90614687565b60405180910390fd5b81601560003373ffffffffffffffffffffffffffffffffffffffff1673ffffffffffffffffffffffffffffffffffffffff1681526020019081526020016000205461154e9190614457565b601560003373ffffffffffffffffffffffffffffffffffffffff1673ffffffffffffffffffffffffffffffffffffffff1681526020019081526020016000208190555061159b3383612942565b5050565b816115a981612035565b6115b38383612bc3565b505050565b601380546115c590613ed4565b80601f01602080910402602001604051908101604052809291908181526020018280546115f190613ed4565b801561163e5780601f106116135761010080835404028352916020019161163e565b820191906000526020600020905b81548152906001019060200180831161162157829003601f168201915b505050505081565b61164e611dc3565b80601160016101000a81548160ff02191690831515021790555050565b833373ffffffffffffffffffffffffffffffffffffffff168173ffffffffffffffffffffffffffffffffffffffff16146116a9576116a833612035565b5b6116b585858585612cce565b5050505050565b6116c4611dc3565b80600d8190555050565b606060001515600c60009054906101000a900460ff1615150361177d57601380546116f890613ed4565b80601f016020809104026020016040519081016040528092919081815260200182805461172490613ed4565b80156117715780601f1061174657610100808354040283529160200191611771565b820191906000526020600020905b81548152906001019060200180831161175457829003601f168201915b50505050509050611815565b61178682611fd6565b6117bc576040517fa14c4b5000000000000000000000000000000000000000000000000000000000815260040160405180910390fd5b60006117c6612d41565b905060008151036117e65760405180602001604052806000815250611811565b806117f084612dd3565b60405160200161180192919061472f565b6040516020818303038152906040525b9150505b919050565b601160019054906101000a900460ff16611869576040517f08c379a000000000000000000000000000000000000000000000000000000000815260040161186090614543565b60405180910390fd5b6000611873610ba0565b9050600e5484826118849190614457565b11156118c5576040517f08c379a00000000000000000000000000000000000000000000000000000000081526004016118bc906144d7565b60405180910390fd5b6001600d546118d49190614457565b8410611915576040517f08c379a000000000000000000000000000000000000000000000000000000000815260040161190c906145af565b60405180910390fd5b611989838380806020026020016040519081016040528093929190818152602001838360200280828437600081840152601f19601f820116905080830192505050505050506014543360405160200161196e91906147a6565b60405160208183030381529060405280519060200120612ea1565b6119c8576040517f08c379a00000000000000000000000000000000000000000000000000000000081526004016119bf9061480d565b60405180910390fd5b601054846119d69190613f34565b341015611a18576040517f08c379a0000000000000000000000000000000000000000000000000000000008152600401611a0f9061461b565b60405180910390fd5b600f5484601560003373ffffffffffffffffffffffffffffffffffffffff1673ffffffffffffffffffffffffffffffffffffffff16815260200190815260200160002054611a669190614457565b1115611aa7576040517f08c379a0000000000000000000000000000000000000000000000000000000008152600401611a9e90614687565b60405180910390fd5b83601560003373ffffffffffffffffffffffffffffffffffffffff1673ffffffffffffffffffffffffffffffffffffffff16815260200190815260200160002054611af29190614457565b601560003373ffffffffffffffffffffffffffffffffffffffff1673ffffffffffffffffffffffffffffffffffffffff16815260200190815260200160002081905550611b3f3385612942565b50505050565b600e5481565b611b53611dc3565b80600c60006101000a81548160ff02191690831515021790555050565b611b78611dc3565b80600f8190555050565b6000600760008473ffffffffffffffffffffffffffffffffffffffff1673ffffffffffffffffffffffffffffffffffffffff16815260200190815260200160002060008373ffffffffffffffffffffffffffffffffffffffff1673ffffffffffffffffffffffffffffffffffffffff16815260200190815260200160002060009054906101000a900460ff16905092915050565b60156020528060005260406000206000915090505481565b611c36611dc3565b600073ffffffffffffffffffffffffffffffffffffffff168173ffffffffffffffffffffffffffffffffffffffff1603611ca5576040517f08c379a0000000000000000000000000000000000000000000000000000000008152600401611c9c9061489f565b60405180910390fd5b611cae81612afd565b50565b600d5481565b60006301ffc9a760e01b827bffffffffffffffffffffffffffffffffffffffffffffffffffffffff19161480611d1257506380ac58cd60e01b827bffffffffffffffffffffffffffffffffffffffffffffffffffffffff1916145b80611d425750635b5e139f60e01b827bffffffffffffffffffffffffffffffffffffffffffffffffffffffff1916145b9050919050565b60007f2a55205a000000000000000000000000000000000000000000000000000000007bffffffffffffffffffffffffffffffffffffffffffffffffffffffff1916827bffffffffffffffffffffffffffffffffffffffffffffffffffffffff19161480611dbc5750611dbb82612eb8565b5b9050919050565b611dcb612f22565b73ffffffffffffffffffffffffffffffffffffffff16611de96111d3565b73ffffffffffffffffffffffffffffffffffffffff1614611e3f576040517f08c379a0000000000000000000000000000000000000000000000000000000008152600401611e369061490b565b60405180910390fd5b565b611e496125a1565b6bffffffffffffffffffffffff16816bffffffffffffffffffffffff161115611ea7576040517f08c379a0000000000000000000000000000000000000000000000000000000008152600401611e9e9061499d565b60405180910390fd5b600073ffffffffffffffffffffffffffffffffffffffff168273ffffffffffffffffffffffffffffffffffffffff1603611f16576040517f08c379a0000000000000000000000000000000000000000000000000000000008152600401611f0d90614a09565b60405180910390fd5b60405180604001604052808373ffffffffffffffffffffffffffffffffffffffff168152602001826bffffffffffffffffffffffff16815250600860008201518160000160006101000a81548173ffffffffffffffffffffffffffffffffffffffff021916908373ffffffffffffffffffffffffffffffffffffffff16021790555060208201518160000160146101000a8154816bffffffffffffffffffffffff02191690836bffffffffffffffffffffffff1602179055509050505050565b600081611fe1612276565b11158015611ff0575060005482105b801561202e575060007c0100000000000000000000000000000000000000000000000000000000600460008581526020019081526020016000205416145b9050919050565b60006daaeb6d7670e522a718067333cd4e73ffffffffffffffffffffffffffffffffffffffff163b111561212f576daaeb6d7670e522a718067333cd4e73ffffffffffffffffffffffffffffffffffffffff1663c617113430836040518363ffffffff1660e01b81526004016120ac929190614a29565b602060405180830381865afa1580156120c9573d6000803e3d6000fd5b505050506040513d601f19601f820116820180604052508101906120ed9190614a67565b61212e57806040517fede71dcc0000000000000000000000000000000000000000000000000000000081526004016121259190613625565b60405180910390fd5b5b50565b600061213d82610fca565b90508073ffffffffffffffffffffffffffffffffffffffff1661215e612f2a565b73ffffffffffffffffffffffffffffffffffffffff16146121c15761218a81612185612f2a565b611b82565b6121c0576040517fcfb3b94200000000000000000000000000000000000000000000000000000000815260040160405180910390fd5b5b826006600084815260200190815260200160002060000160006101000a81548173ffffffffffffffffffffffffffffffffffffffff021916908373ffffffffffffffffffffffffffffffffffffffff160217905550818373ffffffffffffffffffffffffffffffffffffffff168273ffffffffffffffffffffffffffffffffffffffff167f8c5be1e5ebec7d5bd14f71427d1e84f3dd0314c0f7b2291e5b200ac8c7c3b92560405160405180910390a4505050565b60006001905090565b600061228a82612876565b90508373ffffffffffffffffffffffffffffffffffffffff168173ffffffffffffffffffffffffffffffffffffffff16146122f1576040517fa114810000000000000000000000000000000000000000000000000000000000815260040160405180910390fd5b6000806122fd84612f32565b91509150612313818761230e612f2a565b612f59565b61235f5761232886612323612f2a565b611b82565b61235e576040517f59c896be00000000000000000000000000000000000000000000000000000000815260040160405180910390fd5b5b600073ffffffffffffffffffffffffffffffffffffffff168573ffffffffffffffffffffffffffffffffffffffff16036123c5576040517fea553b3400000000000000000000000000000000000000000000000000000000815260040160405180910390fd5b6123d28686866001612f9d565b80156123dd57600082555b600560008773ffffffffffffffffffffffffffffffffffffffff1673ffffffffffffffffffffffffffffffffffffffff168152602001908152602001600020600081546001900391905081905550600560008673ffffffffffffffffffffffffffffffffffffffff1673ffffffffffffffffffffffffffffffffffffffff16815260200190815260200160002060008154600101919050819055506124ab85612487888887612fa3565b7c020000000000000000000000000000000000000000000000000000000017612fcb565b600460008681526020019081526020016000208190555060007c0200000000000000000000000000000000000000000000000000000000841603612531576000600185019050600060046000838152602001908152602001600020540361252f57600054811461252e578360046000838152602001908152602001600020819055505b5b505b838573ffffffffffffffffffffffffffffffffffffffff168773ffffffffffffffffffffffffffffffffffffffff167fddf252ad1be2c89b69c2b068fc378daa952ba7f163c4a11628f55a4df523b3ef60405160405180910390a46125998686866001612ff6565b505050505050565b6000612710905090565b6002600b54036125f0576040517f08c379a00000000000000000000000000000000000000000000000000000000081526004016125e790614ae0565b60405180910390fd5b6002600b81905550565b6001600b81905550565b61261f8383836040518060200160405280600081525061166b565b505050565b600061262f83612876565b9050600081905060008061264286612f32565b9150915084156126ab5761265e8184612659612f2a565b612f59565b6126aa576126738361266e612f2a565b611b82565b6126a9576040517f59c896be00000000000000000000000000000000000000000000000000000000815260040160405180910390fd5b5b5b6126b9836000886001612f9d565b80156126c457600082555b600160806001901b03600560008573ffffffffffffffffffffffffffffffffffffffff1673ffffffffffffffffffffffffffffffffffffffff1681526020019081526020016000206000828254019250508190555061276c8361272985600088612fa3565b7c02000000000000000000000000000000000000000000000000000000007c01000000000000000000000000000000000000000000000000000000001717612fcb565b600460008881526020019081526020016000208190555060007c02000000000000000000000000000000000000000000000000000000008516036127f257600060018701905060006004600083815260200190815260200160002054036127f05760005481146127ef578460046000838152602001908152602001600020819055505b5b505b85600073ffffffffffffffffffffffffffffffffffffffff168473ffffffffffffffffffffffffffffffffffffffff167fddf252ad1be2c89b69c2b068fc378daa952ba7f163c4a11628f55a4df523b3ef60405160405180910390a461285c836000886001612ff6565b600160008154809291906001019190505550505050505050565b60008082905080612885612276565b1161290b5760005481101561290a5760006004600083815260200190815260200160002054905060007c0100000000000000000000000000000000000000000000000000000000821603612908575b600081036128fe5760046000836001900393508381526020019081526020016000205490506128d4565b809250505061293d565b505b5b6040517fdf2d9b4200000000000000000000000000000000000000000000000000000000815260040160405180910390fd5b919050565b60008054905060008203612982576040517fb562e8dd00000000000000000000000000000000000000000000000000000000815260040160405180910390fd5b61298f6000848385612f9d565b600160406001901b178202600560008573ffffffffffffffffffffffffffffffffffffffff1673ffffffffffffffffffffffffffffffffffffffff16815260200190815260200160002060008282540192505081905550612a06836129f76000866000612fa3565b612a0085612ffc565b17612fcb565b6004600083815260200190815260200160002081905550600080838301905073ffffffffffffffffffffffffffffffffffffffff85169150828260007fddf252ad1be2c89b69c2b068fc378daa952ba7f163c4a11628f55a4df523b3ef600080a4600183015b818114612aa757808360007fddf252ad1be2c89b69c2b068fc378daa952ba7f163c4a11628f55a4df523b3ef600080a4600181019050612a6c565b5060008203612ae2576040517f2e07630000000000000000000000000000000000000000000000000000000000815260040160405180910390fd5b806000819055505050612af86000848385612ff6565b505050565b6000600a60009054906101000a900473ffffffffffffffffffffffffffffffffffffffff16905081600a60006101000a81548173ffffffffffffffffffffffffffffffffffffffff021916908373ffffffffffffffffffffffffffffffffffffffff1602179055508173ffffffffffffffffffffffffffffffffffffffff168173ffffffffffffffffffffffffffffffffffffffff167f8be0079c531659141344cd1fd0a4f28419497f9722a3daafe3b4186f6b6457e060405160405180910390a35050565b8060076000612bd0612f2a565b73ffffffffffffffffffffffffffffffffffffffff1673ffffffffffffffffffffffffffffffffffffffff16815260200190815260200160002060008473ffffffffffffffffffffffffffffffffffffffff1673ffffffffffffffffffffffffffffffffffffffff16815260200190815260200160002060006101000a81548160ff0219169083151502179055508173ffffffffffffffffffffffffffffffffffffffff16612c7d612f2a565b73ffffffffffffffffffffffffffffffffffffffff167f17307eab39ab6107e8899845ad3d59bd9653f200f220920489ca2b5937696c3183604051612cc2919061336b565b60405180910390a35050565b612cd9848484610bb7565b60008373ffffffffffffffffffffffffffffffffffffffff163b14612d3b57612d048484848461300c565b612d3a576040517fd1a57ed600000000000000000000000000000000000000000000000000000000815260040160405180910390fd5b5b50505050565b606060128054612d5090613ed4565b80601f0160208091040260200160405190810160405280929190818152602001828054612d7c90613ed4565b8015612dc95780601f10612d9e57610100808354040283529160200191612dc9565b820191906000526020600020905b815481529060010190602001808311612dac57829003601f168201915b5050505050905090565b606060006001612de28461315c565b01905060008167ffffffffffffffff811115612e0157612e006138cb565b5b6040519080825280601f01601f191660200182016040528015612e335781602001600182028036833780820191505090505b509050600082602001820190505b600115612e96578080600190039150507f3031323334353637383961626364656600000000000000000000000000000000600a86061a8153600a8581612e8a57612e89613f76565b5b04945060008503612e41575b819350505050919050565b600082612eae85846132af565b1490509392505050565b60007f01ffc9a7000000000000000000000000000000000000000000000000000000007bffffffffffffffffffffffffffffffffffffffffffffffffffffffff1916827bffffffffffffffffffffffffffffffffffffffffffffffffffffffff1916149050919050565b600033905090565b600033905090565b60008060006006600085815260200190815260200160002090508092508254915050915091565b600073ffffffffffffffffffffffffffffffffffffffff8316925073ffffffffffffffffffffffffffffffffffffffff821691508382148383141790509392505050565b50505050565b60008060e883901c905060e8612fba868684613305565b62ffffff16901b9150509392505050565b600073ffffffffffffffffffffffffffffffffffffffff83169250814260a01b178317905092915050565b50505050565b60006001821460e11b9050919050565b60008373ffffffffffffffffffffffffffffffffffffffff1663150b7a02613032612f2a565b8786866040518563ffffffff1660e01b81526004016130549493929190614b55565b6020604051808303816000875af192505050801561309057506040513d601f19601f8201168201806040525081019061308d9190614bb6565b60015b613109573d80600081146130c0576040519150601f19603f3d011682016040523d82523d6000602084013e6130c5565b606091505b506000815103613101576040517fd1a57ed600000000000000000000000000000000000000000000000000000000815260040160405180910390fd5b805181602001fd5b63150b7a0260e01b7bffffffffffffffffffffffffffffffffffffffffffffffffffffffff1916817bffffffffffffffffffffffffffffffffffffffffffffffffffffffff191614915050949350505050565b600080600090507a184f03e93ff9f4daa797ed6e38ed64bf6a1f01000000000000000083106131ba577a184f03e93ff9f4daa797ed6e38ed64bf6a1f01000000000000000083816131b0576131af613f76565b5b0492506040810190505b6d04ee2d6d415b85acef810000000083106131f7576d04ee2d6d415b85acef810000000083816131ed576131ec613f76565b5b0492506020810190505b662386f26fc10000831061322657662386f26fc10000838161321c5761321b613f76565b5b0492506010810190505b6305f5e100831061324f576305f5e100838161324557613244613f76565b5b0492506008810190505b612710831061327457612710838161326a57613269613f76565b5b0492506004810190505b60648310613297576064838161328d5761328c613f76565b5b0492506002810190505b600a83106132a6576001810190505b80915050919050565b60008082905060005b84518110156132fa576132e5828683815181106132d8576132d7614428565b5b602002602001015161330e565b915080806132f290614be3565b9150506132b8565b508091505092915050565b60009392505050565b6000818310613326576133218284613339565b613331565b6133308383613339565b5b905092915050565b600082600052816020526040600020905092915050565b60008115159050919050565b61336581613350565b82525050565b6000602082019050613380600083018461335c565b92915050565b6000604051905090565b600080fd5b600080fd5b60007fffffffff0000000000000000000000000000000000000000000000000000000082169050919050565b6133cf8161339a565b81146133da57600080fd5b50565b6000813590506133ec816133c6565b92915050565b60006020828403121561340857613407613390565b5b6000613416848285016133dd565b91505092915050565b600073ffffffffffffffffffffffffffffffffffffffff82169050919050565b600061344a8261341f565b9050919050565b61345a8161343f565b811461346557600080fd5b50565b60008135905061347781613451565b92915050565b60006bffffffffffffffffffffffff82169050919050565b61349e8161347d565b81146134a957600080fd5b50565b6000813590506134bb81613495565b92915050565b600080604083850312156134d8576134d7613390565b5b60006134e685828601613468565b92505060206134f7858286016134ac565b9150509250929050565b600081519050919050565b600082825260208201905092915050565b60005b8381101561353b578082015181840152602081019050613520565b60008484015250505050565b6000601f19601f8301169050919050565b600061356382613501565b61356d818561350c565b935061357d81856020860161351d565b61358681613547565b840191505092915050565b600060208201905081810360008301526135ab8184613558565b905092915050565b6000819050919050565b6135c6816135b3565b81146135d157600080fd5b50565b6000813590506135e3816135bd565b92915050565b6000602082840312156135ff576135fe613390565b5b600061360d848285016135d4565b91505092915050565b61361f8161343f565b82525050565b600060208201905061363a6000830184613616565b92915050565b6000806040838503121561365757613656613390565b5b600061366585828601613468565b9250506020613676858286016135d4565b9150509250929050565b613689816135b3565b82525050565b60006020820190506136a46000830184613680565b92915050565b6000806000606084860312156136c3576136c2613390565b5b60006136d186828701613468565b93505060206136e286828701613468565b92505060406136f3868287016135d4565b9150509250925092565b6000806040838503121561371457613713613390565b5b6000613722858286016135d4565b9250506020613733858286016135d4565b9150509250929050565b60006040820190506137526000830185613616565b61375f6020830184613680565b9392505050565b6000819050919050565b61377981613766565b82525050565b60006020820190506137946000830184613770565b92915050565b600080fd5b600080fd5b600080fd5b60008083601f8401126137bf576137be61379a565b5b8235905067ffffffffffffffff8111156137dc576137db61379f565b5b6020830191508360018202830111156137f8576137f76137a4565b5b9250929050565b6000806020838503121561381657613815613390565b5b600083013567ffffffffffffffff81111561383457613833613395565b5b613840858286016137a9565b92509250509250929050565b6000819050919050565b600061387161386c6138678461341f565b61384c565b61341f565b9050919050565b600061388382613856565b9050919050565b600061389582613878565b9050919050565b6138a58161388a565b82525050565b60006020820190506138c0600083018461389c565b92915050565b600080fd5b7f4e487b7100000000000000000000000000000000000000000000000000000000600052604160045260246000fd5b61390382613547565b810181811067ffffffffffffffff82111715613922576139216138cb565b5b80604052505050565b6000613935613386565b905061394182826138fa565b919050565b600067ffffffffffffffff821115613961576139606138cb565b5b61396a82613547565b9050602081019050919050565b82818337600083830152505050565b600061399961399484613946565b61392b565b9050828152602081018484840111156139b5576139b46138c6565b5b6139c0848285613977565b509392505050565b600082601f8301126139dd576139dc61379a565b5b81356139ed848260208601613986565b91505092915050565b600060208284031215613a0c57613a0b613390565b5b600082013567ffffffffffffffff811115613a2a57613a29613395565b5b613a36848285016139c8565b91505092915050565b60008083601f840112613a5557613a5461379a565b5b8235905067ffffffffffffffff811115613a7257613a7161379f565b5b602083019150836020820283011115613a8e57613a8d6137a4565b5b9250929050565b60008083601f840112613aab57613aaa61379a565b5b8235905067ffffffffffffffff811115613ac857613ac761379f565b5b602083019150836020820283011115613ae457613ae36137a4565b5b9250929050565b60008060008060408587031215613b0557613b04613390565b5b600085013567ffffffffffffffff811115613b2357613b22613395565b5b613b2f87828801613a3f565b9450945050602085013567ffffffffffffffff811115613b5257613b51613395565b5b613b5e87828801613a95565b925092505092959194509250565b600060208284031215613b8257613b81613390565b5b6000613b9084828501613468565b91505092915050565b613ba281613766565b8114613bad57600080fd5b50565b600081359050613bbf81613b99565b92915050565b600060208284031215613bdb57613bda613390565b5b6000613be984828501613bb0565b91505092915050565b613bfb81613350565b8114613c0657600080fd5b50565b600081359050613c1881613bf2565b92915050565b600060208284031215613c3457613c33613390565b5b6000613c4284828501613c09565b91505092915050565b60008060408385031215613c6257613c61613390565b5b6000613c7085828601613468565b9250506020613c8185828601613c09565b9150509250929050565b600067ffffffffffffffff821115613ca657613ca56138cb565b5b613caf82613547565b9050602081019050919050565b6000613ccf613cca84613c8b565b61392b565b905082815260208101848484011115613ceb57613cea6138c6565b5b613cf6848285613977565b509392505050565b600082601f830112613d1357613d1261379a565b5b8135613d23848260208601613cbc565b91505092915050565b60008060008060808587031215613d4657613d45613390565b5b6000613d5487828801613468565b9450506020613d6587828801613468565b9350506040613d76878288016135d4565b925050606085013567ffffffffffffffff811115613d9757613d96613395565b5b613da387828801613cfe565b91505092959194509250565b60008083601f840112613dc557613dc461379a565b5b8235905067ffffffffffffffff811115613de257613de161379f565b5b602083019150836020820283011115613dfe57613dfd6137a4565b5b9250929050565b600080600060408486031215613e1e57613e1d613390565b5b6000613e2c868287016135d4565b935050602084013567ffffffffffffffff811115613e4d57613e4c613395565b5b613e5986828701613daf565b92509250509250925092565b60008060408385031215613e7c57613e7b613390565b5b6000613e8a85828601613468565b9250506020613e9b85828601613468565b9150509250929050565b7f4e487b7100000000000000000000000000000000000000000000000000000000600052602260045260246000fd5b60006002820490506001821680613eec57607f821691505b602082108103613eff57613efe613ea5565b5b50919050565b7f4e487b7100000000000000000000000000000000000000000000000000000000600052601160045260246000fd5b6000613f3f826135b3565b9150613f4a836135b3565b9250828202613f58816135b3565b91508282048414831517613f6f57613f6e613f05565b5b5092915050565b7f4e487b7100000000000000000000000000000000000000000000000000000000600052601260045260246000fd5b6000613fb0826135b3565b9150613fbb836135b3565b925082613fcb57613fca613f76565b5b828204905092915050565b600082905092915050565b60008190508160005260206000209050919050565b60006020601f8301049050919050565b600082821b905092915050565b6000600883026140437fffffffffffffffffffffffffffffffffffffffffffffffffffffffffffffffff82614006565b61404d8683614006565b95508019841693508086168417925050509392505050565b600061408061407b614076846135b3565b61384c565b6135b3565b9050919050565b6000819050919050565b61409a83614065565b6140ae6140a682614087565b848454614013565b825550505050565b600090565b6140c36140b6565b6140ce818484614091565b505050565b5b818110156140f2576140e76000826140bb565b6001810190506140d4565b5050565b601f8211156141375761410881613fe1565b61411184613ff6565b81016020851015614120578190505b61413461412c85613ff6565b8301826140d3565b50505b505050565b600082821c905092915050565b600061415a6000198460080261413c565b1980831691505092915050565b60006141738383614149565b9150826002028217905092915050565b61418d8383613fd6565b67ffffffffffffffff8111156141a6576141a56138cb565b5b6141b08254613ed4565b6141bb8282856140f6565b6000601f8311600181146141ea57600084156141d8578287013590505b6141e28582614167565b86555061424a565b601f1984166141f886613fe1565b60005b82811015614220578489013582556001820191506020850194506020810190506141fb565b8683101561423d5784890135614239601f891682614149565b8355505b6001600288020188555050505b50505050505050565b600061425f838561350c565b935061426c838584613977565b61427583613547565b840190509392505050565b6000602082019050818103600083015261429b818486614253565b90509392505050565b600081905092915050565b50565b60006142bf6000836142a4565b91506142ca826142af565b600082019050919050565b60006142e0826142b2565b9150819050919050565b7f5472616e73666572206661696c65642e00000000000000000000000000000000600082015250565b600061432060108361350c565b915061432b826142ea565b602082019050919050565b6000602082019050818103600083015261434f81614313565b9050919050565b61435f82613501565b67ffffffffffffffff811115614378576143776138cb565b5b6143828254613ed4565b61438d8282856140f6565b600060209050601f8311600181146143c057600084156143ae578287015190505b6143b88582614167565b865550614420565b601f1984166143ce86613fe1565b60005b828110156143f6578489015182556001820191506020850194506020810190506143d1565b86831015614413578489015161440f601f891682614149565b8355505b6001600288020188555050505b505050505050565b7f4e487b7100000000000000000000000000000000000000000000000000000000600052603260045260246000fd5b6000614462826135b3565b915061446d836135b3565b925082820190508082111561448557614484613f05565b5b92915050565b7f736f6c64206f7574000000000000000000000000000000000000000000000000600082015250565b60006144c160088361350c565b91506144cc8261448b565b602082019050919050565b600060208201905081810360008301526144f0816144b4565b9050919050565b7f6d696e74696e67206e6f7420656e61626c656400000000000000000000000000600082015250565b600061452d60138361350c565b9150614538826144f7565b602082019050919050565b6000602082019050818103600083015261455c81614520565b9050919050565b7f4d61782070657220545820726561636865642e00000000000000000000000000600082015250565b600061459960138361350c565b91506145a482614563565b602082019050919050565b600060208201905081810360008301526145c88161458c565b9050919050565b7f496e7375666666696369656e742046756e647300000000000000000000000000600082015250565b600061460560138361350c565b9150614610826145cf565b602082019050919050565b60006020820190508181036000830152614634816145f8565b9050919050565b7f657863656564206d6178207065722077616c6c65740000000000000000000000600082015250565b600061467160158361350c565b915061467c8261463b565b602082019050919050565b600060208201905081810360008301526146a081614664565b9050919050565b600081905092915050565b60006146bd82613501565b6146c781856146a7565b93506146d781856020860161351d565b80840191505092915050565b7f2e6a736f6e000000000000000000000000000000000000000000000000000000600082015250565b60006147196005836146a7565b9150614724826146e3565b600582019050919050565b600061473b82856146b2565b915061474782846146b2565b91506147528261470c565b91508190509392505050565b60008160601b9050919050565b60006147768261475e565b9050919050565b60006147888261476b565b9050919050565b6147a061479b8261343f565b61477d565b82525050565b60006147b2828461478f565b60148201915081905092915050565b7f496e636f72726563742070726f6f660000000000000000000000000000000000600082015250565b60006147f7600f8361350c565b9150614802826147c1565b602082019050919050565b60006020820190508181036000830152614826816147ea565b9050919050565b7f4f776e61626c653a206e6577206f776e657220697320746865207a65726f206160008201527f6464726573730000000000000000000000000000000000000000000000000000602082015250565b600061488960268361350c565b91506148948261482d565b604082019050919050565b600060208201905081810360008301526148b88161487c565b9050919050565b7f4f776e61626c653a2063616c6c6572206973206e6f7420746865206f776e6572600082015250565b60006148f560208361350c565b9150614900826148bf565b602082019050919050565b60006020820190508181036000830152614924816148e8565b9050919050565b7f455243323938313a20726f79616c7479206665652077696c6c2065786365656460008201527f2073616c65507269636500000000000000000000000000000000000000000000602082015250565b6000614987602a8361350c565b91506149928261492b565b604082019050919050565b600060208201905081810360008301526149b68161497a565b9050919050565b7f455243323938313a20696e76616c696420726563656976657200000000000000600082015250565b60006149f360198361350c565b91506149fe826149bd565b602082019050919050565b60006020820190508181036000830152614a22816149e6565b9050919050565b6000604082019050614a3e6000830185613616565b614a4b6020830184613616565b9392505050565b600081519050614a6181613bf2565b92915050565b600060208284031215614a7d57614a7c613390565b5b6000614a8b84828501614a52565b91505092915050565b7f5265656e7472616e637947756172643a207265656e7472616e742063616c6c00600082015250565b6000614aca601f8361350c565b9150614ad582614a94565b602082019050919050565b60006020820190508181036000830152614af981614abd565b9050919050565b600081519050919050565b600082825260208201905092915050565b6000614b2782614b00565b614b318185614b0b565b9350614b4181856020860161351d565b614b4a81613547565b840191505092915050565b6000608082019050614b6a6000830187613616565b614b776020830186613616565b614b846040830185613680565b8181036060830152614b968184614b1c565b905095945050505050565b600081519050614bb0816133c6565b92915050565b600060208284031215614bcc57614bcb613390565b5b6000614bda84828501614ba1565b91505092915050565b6000614bee826135b3565b91507fffffffffffffffffffffffffffffffffffffffffffffffffffffffffffffffff8203614c2057614c1f613f05565b5b60018201905091905056fea2646970667358221220965f582561fdff243b05e1650865309a5d29147e839d965f4aa4e80cd89d267d64736f6c63430008120033",
    "deployedBytecode": "6080604052600c805460ff191690556002600d819055600a600e55600f55660a4d88ddd940006010553480156200003557600080fd5b50604080518082018252600a81526929b0bb32a9b730b4b63d60b11b60208083019190915282518084019093526002835261535360f01b9083015290733cc6cdda760b79bafa08df41ecfa224f810dceb660016daaeb6d7670e522a718067333cd4e3b15620001cd5780156200011b57604051633e9f1edf60e11b81523060048201526001600160a01b03831660248201526daaeb6d7670e522a718067333cd4e90637d3e3dbe906044015b600060405180830381600087803b158015620000fc57600080fd5b505af115801562000111573d6000803e3d6000fd5b50505050620001cd565b6001600160a01b038216156200016c5760405163a0af290360e01b81523060048201526001600160a01b03831660248201526daaeb6d7670e522a718067333cd4e9063a0af290390604401620000e1565b604051632210724360e11b81523060048201526daaeb6d7670e522a718067333cd4e90634420e48690602401600060405180830381600087803b158015620001b357600080fd5b505af1158015620001c8573d6000803e3d6000fd5b505050505b5060029050620001de838262000302565b506003620001ed828262000302565b505060016000555062000200336200020b565b6001600b55620003ce565b600a80546001600160a01b038381166001600160a01b0319831681179093556040519116919082907f8be0079c531659141344cd1fd0a4f28419497f9722a3daafe3b4186f6b6457e090600090a35050565b634e487b7160e01b600052604160045260246000fd5b600181811c908216806200028857607f821691505b602082108103620002a957634e487b7160e01b600052602260045260246000fd5b50919050565b601f821115620002fd57600081815260208120601f850160051c81016020861015620002d85750805b601f850160051c820191505b81811015620002f957828155600101620002e4565b5050505b505050565b81516001600160401b038111156200031e576200031e6200025d565b62000336816200032f845462000273565b84620002af565b602080601f8311600181146200036e5760008415620003555750858301515b600019600386901b1c1916600185901b178555620002f9565b600085815260208120601f198616915b828110156200039f578886015182559484019460019091019084016200037e565b5085821015620003be5787850151600019600388901b60f8161c191681555b5050505050600190811b01905550565b61290580620003de6000396000f3fe60806040526004361061027d5760003560e01c8063715018a61161014f578063b767a098116100c1578063e0a808531161007a578063e0a8085314610726578063e268e4d314610746578063e985e9c514610766578063f0293fd314610786578063f2fde38b146107b3578063f968adbe146107d357600080fd5b8063b767a0981461068a578063b88d4fde146106aa578063c6f6f216146106bd578063c87b56dd146106dd578063d2cab056146106fd578063d5abeb011461071057600080fd5b806391b7f5ed1161011357806391b7f5ed146105f757806395d89b4114610617578063a035b1fe1461062c578063a0712d6814610642578063a22cb46514610655578063a45ba8e71461067557600080fd5b8063715018a6146105645780637cb6475914610579578063818668d7146105995780638da5cb5b146105b95780638db89f07146105d757600080fd5b80633ccfd60b116101f357806351aaceab116101ac57806351aaceab146104ab57806354214f69146104ca5780636352211e146104e457806367243482146105045780636f8b44b01461052457806370a082311461054457600080fd5b80633ccfd60b1461040b57806341f434341461042057806342842e0e1461044257806342966c6814610455578063453c2310146104755780634fdd43cb1461048b57600080fd5b8063095ea7b311610245578063095ea7b31461034d57806318160ddd1461036057806323b872dd146103835780632a55205a146103965780632eb4a7ab146103d557806330176e13146103eb57600080fd5b80630116bc2d1461028257806301ffc9a7146102b157806302fa7c47146102d157806306fdde03146102f3578063081812fc14610315575b600080fd5b34801561028e57600080fd5b5060115461029c9060ff1681565b60405190151581526020015b60405180910390f35b3480156102bd57600080fd5b5061029c6102cc366004612032565b6107e9565b3480156102dd57600080fd5b506102f16102ec36600461206b565b610809565b005b3480156102ff57600080fd5b5061030861081f565b6040516102a891906120fe565b34801561032157600080fd5b50610335610330366004612111565b6108b1565b6040516001600160a01b0390911681526020016102a8565b6102f161035b36600461212a565b6108f5565b34801561036c57600080fd5b5061037561090e565b6040519081526020016102a8565b6102f1610391366004612154565b61091c565b3480156103a257600080fd5b506103b66103b1366004612190565b610947565b604080516001600160a01b0390931683526020830191909152016102a8565b3480156103e157600080fd5b5061037560145481565b3480156103f757600080fd5b506102f16104063660046121b2565b6109f5565b34801561041757600080fd5b506102f1610a48565b34801561042c57600080fd5b506103356daaeb6d7670e522a718067333cd4e81565b6102f1610450366004612154565b610af5565b34801561046157600080fd5b506102f1610470366004612111565b610b1a565b34801561048157600080fd5b50610375600f5481565b34801561049757600080fd5b506102f16104a63660046122b0565b610b28565b3480156104b757600080fd5b5060115461029c90610100900460ff1681565b3480156104d657600080fd5b50600c5461029c9060ff1681565b3480156104f057600080fd5b506103356104ff366004612111565b610b3c565b34801561051057600080fd5b506102f161051f36600461233e565b610b47565b34801561053057600080fd5b506102f161053f366004612111565b610c00565b34801561055057600080fd5b5061037561055f3660046123aa565b610c0d565b34801561057057600080fd5b506102f1610c5c565b34801561058557600080fd5b506102f1610594366004612111565b610c6e565b3480156105a557600080fd5b506102f16105b43660046123d3565b610c7b565b3480156105c557600080fd5b50600a546001600160a01b0316610335565b3480156105e357600080fd5b506102f16105f2366004612111565b610c96565b34801561060357600080fd5b506102f1610612366004612111565b610cf3565b34801561062357600080fd5b50610308610d00565b34801561063857600080fd5b5061037560105481565b6102f1610650366004612111565b610d0f565b34801561066157600080fd5b506102f16106703660046123f0565b610ecf565b34801561068157600080fd5b50610308610ee3565b34801561069657600080fd5b506102f16106a53660046123d3565b610f71565b6102f16106b836600461241c565b610f93565b3480156106c957600080fd5b506102f16106d8366004612111565b610fc0565b3480156106e957600080fd5b506103086106f8366004612111565b610fcd565b6102f161070b366004612498565b6110f3565b34801561071c57600080fd5b50610375600e5481565b34801561073257600080fd5b506102f16107413660046123d3565b61136b565b34801561075257600080fd5b506102f1610761366004612111565b611386565b34801561077257600080fd5b5061029c6107813660046124e4565b611393565b34801561079257600080fd5b506103756107a13660046123aa565b60156020526000908152604090205481565b3480156107bf57600080fd5b506102f16107ce3660046123aa565b6113c1565b3480156107df57600080fd5b50610375600d5481565b60006107f482611437565b80610803575061080382611485565b92915050565b6108116114ba565b61081b8282611514565b5050565b60606002805461082e90612517565b80601f016020809104026020016040519081016040528092919081815260200182805461085a90612517565b80156108a75780601f1061087c576101008083540402835291602001916108a7565b820191906000526020600020905b81548152906001019060200180831161088a57829003601f168201915b5050505050905090565b60006108bc82611611565b6108d9576040516333d1c03960e21b815260040160405180910390fd5b506000908152600660205260409020546001600160a01b031690565b816108ff81611646565b61090983836116ff565b505050565b600154600054036000190190565b826001600160a01b03811633146109365761093633611646565b61094184848461179f565b50505050565b60008281526009602090815260408083208151808301909252546001600160a01b038116808352600160a01b9091046001600160601b03169282019290925282916109bc5750604080518082019091526008546001600160a01b0381168252600160a01b90046001600160601b031660208201525b6020810151600090612710906109db906001600160601b031687612567565b6109e5919061257e565b91519350909150505b9250929050565b6109fd6114ba565b6012610a0a8284836125e6565b507f6741b2fc379fad678116fe3d4d4b9a1a184ab53ba36b86ad0fa66340b1ab41ad8282604051610a3c9291906126a6565b60405180910390a15050565b610a506114ba565b610a58611930565b604051600090339047908381818185875af1925050503d8060008114610a9a576040519150601f19603f3d011682016040523d82523d6000602084013e610a9f565b606091505b5050905080610ae85760405162461bcd60e51b815260206004820152601060248201526f2a3930b739b332b9103330b4b632b21760811b60448201526064015b60405180910390fd5b50610af36001600b55565b565b826001600160a01b0381163314610b0f57610b0f33611646565b610941848484611989565b610b258160016119a4565b50565b610b306114ba565b601361081b82826126d5565b600061080382611adc565b610b4f6114ba565b610b57611930565b8260005b81811015610bf4576000868683818110610b7757610b77612795565b9050602002016020810190610b8c91906123aa565b90506000858584818110610ba257610ba2612795565b905060200201359050600e5481610bb761090e565b610bc191906127ab565b1115610be057604051638a164f6360e01b815260040160405180910390fd5b610bea8282611b4b565b5050600101610b5b565b50506109416001600b55565b610c086114ba565b600e55565b60006001600160a01b038216610c36576040516323d3ad8160e21b815260040160405180910390fd5b506001600160a01b031660009081526005602052604090205467ffffffffffffffff1690565b610c646114ba565b610af36000611c25565b610c766114ba565b601455565b610c836114ba565b6011805460ff1916911515919091179055565b610c9e6114ba565b610ca6611930565b6000610cb061090e565b600e54909150610cc083836127ab565b1115610cde5760405162461bcd60e51b8152600401610adf906127be565b610ce83383611b4b565b50610b256001600b55565b610cfb6114ba565b601055565b60606003805461082e90612517565b60115460ff16610d575760405162461bcd60e51b81526020600482015260136024820152721b5a5b9d1a5b99c81b9bdd08195b98589b1959606a1b6044820152606401610adf565b6000610d6161090e565b600e54909150610d7183836127ab565b1115610d8f5760405162461bcd60e51b8152600401610adf906127be565b600d54610d9d9060016127ab565b8210610de15760405162461bcd60e51b815260206004820152601360248201527226b0bc103832b9102a2c103932b0b1b432b21760691b6044820152606401610adf565b601054610dee9083612567565b341015610e335760405162461bcd60e51b8152602060048201526013602482015272496e7375666666696369656e742046756e647360681b6044820152606401610adf565b600f5433600090815260156020526040902054610e519084906127ab565b1115610e975760405162461bcd60e51b8152602060048201526015602482015274195e18d95959081b585e081c195c881dd85b1b195d605a1b6044820152606401610adf565b33600090815260156020526040902054610eb29083906127ab565b3360008181526015602052604090209190915561081b9083611b4b565b81610ed981611646565b6109098383611c77565b60138054610ef090612517565b80601f0160208091040260200160405190810160405280929190818152602001828054610f1c90612517565b8015610f695780601f10610f3e57610100808354040283529160200191610f69565b820191906000526020600020905b815481529060010190602001808311610f4c57829003601f168201915b505050505081565b610f796114ba565b601180549115156101000261ff0019909216919091179055565b836001600160a01b0381163314610fad57610fad33611646565b610fb985858585611ce3565b5050505050565b610fc86114ba565b600d55565b600c5460609060ff1615156000036110715760138054610fec90612517565b80601f016020809104026020016040519081016040528092919081815260200182805461101890612517565b80156110655780601f1061103a57610100808354040283529160200191611065565b820191906000526020600020905b81548152906001019060200180831161104857829003601f168201915b50505050509050919050565b61107a82611611565b61109757604051630a14c4b560e41b815260040160405180910390fd5b60006110a1611d27565b905080516000036110c157604051806020016040528060008152506110ec565b806110cb84611d36565b6040516020016110dc9291906127e0565b6040516020818303038152906040525b9392505050565b601154610100900460ff166111405760405162461bcd60e51b81526020600482015260136024820152721b5a5b9d1a5b99c81b9bdd08195b98589b1959606a1b6044820152606401610adf565b600061114a61090e565b600e5490915061115a85836127ab565b11156111785760405162461bcd60e51b8152600401610adf906127be565b600d546111869060016127ab565b84106111ca5760405162461bcd60e51b815260206004820152601360248201527226b0bc103832b9102a2c103932b0b1b432b21760691b6044820152606401610adf565b61123f838380806020026020016040519081016040528093929190818152602001838360200280828437600092019190915250506014546040516bffffffffffffffffffffffff193360601b166020820152909250603401905060405160208183030381529060405280519060200120611dc9565b61127d5760405162461bcd60e51b815260206004820152600f60248201526e24b731b7b93932b1ba10383937b7b360891b6044820152606401610adf565b60105461128a9085612567565b3410156112cf5760405162461bcd60e51b8152602060048201526013602482015272496e7375666666696369656e742046756e647360681b6044820152606401610adf565b600f54336000908152601560205260409020546112ed9086906127ab565b11156113335760405162461bcd60e51b8152602060048201526015602482015274195e18d95959081b585e081c195c881dd85b1b195d605a1b6044820152606401610adf565b3360009081526015602052604090205461134e9085906127ab565b336000818152601560205260409020919091556109419085611b4b565b6113736114ba565b600c805460ff1916911515919091179055565b61138e6114ba565b600f55565b6001600160a01b03918216600090815260076020908152604080832093909416825291909152205460ff1690565b6113c96114ba565b6001600160a01b03811661142e5760405162461bcd60e51b815260206004820152602660248201527f4f776e61626c653a206e6577206f776e657220697320746865207a65726f206160448201526564647265737360d01b6064820152608401610adf565b610b2581611c25565b60006301ffc9a760e01b6001600160e01b03198316148061146857506380ac58cd60e01b6001600160e01b03198316145b806108035750506001600160e01b031916635b5e139f60e01b1490565b60006001600160e01b0319821663152a902d60e11b148061080357506301ffc9a760e01b6001600160e01b0319831614610803565b600a546001600160a01b03163314610af35760405162461bcd60e51b815260206004820181905260248201527f4f776e61626c653a2063616c6c6572206973206e6f7420746865206f776e65726044820152606401610adf565b6127106001600160601b03821611156115825760405162461bcd60e51b815260206004820152602a60248201527f455243323938313a20726f79616c7479206665652077696c6c206578636565646044820152692073616c65507269636560b01b6064820152608401610adf565b6001600160a01b0382166115d85760405162461bcd60e51b815260206004820152601960248201527f455243323938313a20696e76616c6964207265636569766572000000000000006044820152606401610adf565b604080518082019091526001600160a01b039092168083526001600160601b039091166020909201829052600160a01b90910217600855565b600081600111158015611625575060005482105b8015610803575050600090815260046020526040902054600160e01b161590565b6daaeb6d7670e522a718067333cd4e3b15610b2557604051633185c44d60e21b81523060048201526001600160a01b03821660248201526daaeb6d7670e522a718067333cd4e9063c617113490604401602060405180830381865afa1580156116b3573d6000803e3d6000fd5b505050506040513d601f19601f820116820180604052508101906116d7919061281f565b610b2557604051633b79c77360e21b81526001600160a01b0382166004820152602401610adf565b600061170a82610b3c565b9050336001600160a01b03821614611743576117268133611393565b611743576040516367d9dca160e11b815260040160405180910390fd5b60008281526006602052604080822080546001600160a01b0319166001600160a01b0387811691821790925591518593918516917f8c5be1e5ebec7d5bd14f71427d1e84f3dd0314c0f7b2291e5b200ac8c7c3b92591a4505050565b60006117aa82611adc565b9050836001600160a01b0316816001600160a01b0316146117dd5760405162a1148160e81b815260040160405180910390fd5b600082815260066020526040902080546118098187335b6001600160a01b039081169116811491141790565b611834576118178633611393565b61183457604051632ce44b5f60e11b815260040160405180910390fd5b6001600160a01b03851661185b57604051633a954ecd60e21b815260040160405180910390fd5b801561186657600082555b6001600160a01b038681166000908152600560205260408082208054600019019055918716808252919020805460010190554260a01b17600160e11b17600085815260046020526040812091909155600160e11b841690036118f8576001840160008181526004602052604081205490036118f65760005481146118f65760008181526004602052604090208490555b505b83856001600160a01b0316876001600160a01b03166000805160206128b083398151915260405160405180910390a45b505050505050565b6002600b54036119825760405162461bcd60e51b815260206004820152601f60248201527f5265656e7472616e637947756172643a207265656e7472616e742063616c6c006044820152606401610adf565b6002600b55565b61090983838360405180602001604052806000815250610f93565b60006119af83611adc565b9050806000806119cd86600090815260066020526040902080549091565b915091508415611a0d576119e28184336117f4565b611a0d576119f08333611393565b611a0d57604051632ce44b5f60e11b815260040160405180910390fd5b8015611a1857600082555b6001600160a01b038316600081815260056020526040902080546fffffffffffffffffffffffffffffffff0190554260a01b17600360e01b17600087815260046020526040812091909155600160e11b85169003611aa657600186016000818152600460205260408120549003611aa4576000548114611aa45760008181526004602052604090208590555b505b60405186906000906001600160a01b038616906000805160206128b0833981519152908390a45050600180548101905550505050565b60008180600111611b3257600054811015611b325760008181526004602052604081205490600160e01b82169003611b30575b806000036110ec575060001901600081815260046020526040902054611b0f565b505b604051636f96cda160e11b815260040160405180910390fd5b6000805490829003611b705760405163b562e8dd60e01b815260040160405180910390fd5b6001600160a01b03831660008181526005602090815260408083208054680100000000000000018802019055848352600490915281206001851460e11b4260a01b178317905582840190839083906000805160206128b08339815191528180a4600183015b818114611bfb57808360006000805160206128b0833981519152600080a4600101611bd5565b5081600003611c1c57604051622e076360e81b815260040160405180910390fd5b60005550505050565b600a80546001600160a01b038381166001600160a01b0319831681179093556040519116919082907f8be0079c531659141344cd1fd0a4f28419497f9722a3daafe3b4186f6b6457e090600090a35050565b3360008181526007602090815260408083206001600160a01b03871680855290835292819020805460ff191686151590811790915590519081529192917f17307eab39ab6107e8899845ad3d59bd9653f200f220920489ca2b5937696c31910160405180910390a35050565b611cee84848461091c565b6001600160a01b0383163b1561094157611d0a84848484611ddf565b610941576040516368d2bf6b60e11b815260040160405180910390fd5b60606012805461082e90612517565b60606000611d4383611ecb565b600101905060008167ffffffffffffffff811115611d6357611d63612224565b6040519080825280601f01601f191660200182016040528015611d8d576020820181803683370190505b5090508181016020015b600019016f181899199a1a9b1b9c1cb0b131b232b360811b600a86061a8153600a8504945084611d9757509392505050565b600082611dd68584611fa3565b14949350505050565b604051630a85bd0160e11b81526000906001600160a01b0385169063150b7a0290611e1490339089908890889060040161283c565b6020604051808303816000875af1925050508015611e4f575060408051601f3d908101601f19168201909252611e4c91810190612879565b60015b611ead573d808015611e7d576040519150601f19603f3d011682016040523d82523d6000602084013e611e82565b606091505b508051600003611ea5576040516368d2bf6b60e11b815260040160405180910390fd5b805181602001fd5b6001600160e01b031916630a85bd0160e11b1490505b949350505050565b60008072184f03e93ff9f4daa797ed6e38ed64bf6a1f0160401b8310611f0a5772184f03e93ff9f4daa797ed6e38ed64bf6a1f0160401b830492506040015b6d04ee2d6d415b85acef81000000008310611f36576d04ee2d6d415b85acef8100000000830492506020015b662386f26fc100008310611f5457662386f26fc10000830492506010015b6305f5e1008310611f6c576305f5e100830492506008015b6127108310611f8057612710830492506004015b60648310611f92576064830492506002015b600a83106108035760010192915050565b600081815b8451811015611fe857611fd482868381518110611fc757611fc7612795565b6020026020010151611ff0565b915080611fe081612896565b915050611fa8565b509392505050565b600081831061200c5760008281526020849052604090206110ec565b5060009182526020526040902090565b6001600160e01b031981168114610b2557600080fd5b60006020828403121561204457600080fd5b81356110ec8161201c565b80356001600160a01b038116811461206657600080fd5b919050565b6000806040838503121561207e57600080fd5b6120878361204f565b915060208301356001600160601b03811681146120a357600080fd5b809150509250929050565b60005b838110156120c95781810151838201526020016120b1565b50506000910152565b600081518084526120ea8160208601602086016120ae565b601f01601f19169290920160200192915050565b6020815260006110ec60208301846120d2565b60006020828403121561212357600080fd5b5035919050565b6000806040838503121561213d57600080fd5b6121468361204f565b946020939093013593505050565b60008060006060848603121561216957600080fd5b6121728461204f565b92506121806020850161204f565b9150604084013590509250925092565b600080604083850312156121a357600080fd5b50508035926020909101359150565b600080602083850312156121c557600080fd5b823567ffffffffffffffff808211156121dd57600080fd5b818501915085601f8301126121f157600080fd5b81358181111561220057600080fd5b86602082850101111561221257600080fd5b60209290920196919550909350505050565b634e487b7160e01b600052604160045260246000fd5b600067ffffffffffffffff8084111561225557612255612224565b604051601f8501601f19908116603f0116810190828211818310171561227d5761227d612224565b8160405280935085815286868601111561229657600080fd5b858560208301376000602087830101525050509392505050565b6000602082840312156122c257600080fd5b813567ffffffffffffffff8111156122d957600080fd5b8201601f810184136122ea57600080fd5b611ec38482356020840161223a565b60008083601f84011261230b57600080fd5b50813567ffffffffffffffff81111561232357600080fd5b6020830191508360208260051b85010111156109ee57600080fd5b6000806000806040858703121561235457600080fd5b843567ffffffffffffffff8082111561236c57600080fd5b612378888389016122f9565b9096509450602087013591508082111561239157600080fd5b5061239e878288016122f9565b95989497509550505050565b6000602082840312156123bc57600080fd5b6110ec8261204f565b8015158114610b2557600080fd5b6000602082840312156123e557600080fd5b81356110ec816123c5565b6000806040838503121561240357600080fd5b61240c8361204f565b915060208301356120a3816123c5565b6000806000806080858703121561243257600080fd5b61243b8561204f565b93506124496020860161204f565b925060408501359150606085013567ffffffffffffffff81111561246c57600080fd5b8501601f8101871361247d57600080fd5b61248c8782356020840161223a565b91505092959194509250565b6000806000604084860312156124ad57600080fd5b83359250602084013567ffffffffffffffff8111156124cb57600080fd5b6124d7868287016122f9565b9497909650939450505050565b600080604083850312156124f757600080fd5b6125008361204f565b915061250e6020840161204f565b90509250929050565b600181811c9082168061252b57607f821691505b60208210810361254b57634e487b7160e01b600052602260045260246000fd5b50919050565b634e487b7160e01b600052601160045260246000fd5b808202811582820484141761080357610803612551565b60008261259b57634e487b7160e01b600052601260045260246000fd5b500490565b601f82111561090957600081815260208120601f850160051c810160208610156125c75750805b601f850160051c820191505b81811015611928578281556001016125d3565b67ffffffffffffffff8311156125fe576125fe612224565b6126128361260c8354612517565b836125a0565b6000601f841160018114612646576000851561262e5750838201355b600019600387901b1c1916600186901b178355610fb9565b600083815260209020601f19861690835b828110156126775786850135825560209485019460019092019101612657565b50868210156126945760001960f88860031b161c19848701351681555b505060018560011b0183555050505050565b60208152816020820152818360408301376000818301604090810191909152601f909201601f19160101919050565b815167ffffffffffffffff8111156126ef576126ef612224565b612703816126fd8454612517565b846125a0565b602080601f83116001811461273857600084156127205750858301515b600019600386901b1c1916600185901b178555611928565b600085815260208120601f198616915b8281101561276757888601518255948401946001909101908401612748565b50858210156127855787850151600019600388901b60f8161c191681555b5050505050600190811b01905550565b634e487b7160e01b600052603260045260246000fd5b8082018082111561080357610803612551565b6020808252600890820152671cdbdb19081bdd5d60c21b604082015260600190565b600083516127f28184602088016120ae565b8351908301906128068183602088016120ae565b64173539b7b760d91b9101908152600501949350505050565b60006020828403121561283157600080fd5b81516110ec816123c5565b6001600160a01b038581168252841660208201526040810183905260806060820181905260009061286f908301846120d2565b9695505050505050565b60006020828403121561288b57600080fd5b81516110ec8161201c565b6000600182016128a8576128a8612551565b506001019056feddf252ad1be2c89b69c2b068fc378daa952ba7f163c4a11628f55a4df523b3efa26469706673582212208eb06201bfa7f2655da092524bcdb075a457987a75c6425f971e05b6fd49ab0164736f6c63430008120033",
    "linkReferences": {},
    "deployedLinkReferences": {}
}